{
  "_format": "hh-sol-artifact-1",
  "contractName": "AdminRegistry",
  "sourceName": "contracts/AdminRegistry.sol",
  "abi": [
    {
      "inputs": [
        {
          "internalType": "bytes32",
          "name": "hashedCNIC",
          "type": "bytes32"
        }
      ],
      "stateMutability": "nonpayable",
      "type": "constructor"
    },
    {
      "inputs": [
        {
          "internalType": "address",
          "name": "_admin",
          "type": "address"
        }
      ],
      "name": "addSubAdmin",
      "outputs": [],
      "stateMutability": "nonpayable",
      "type": "function"
    },
    {
      "inputs": [
        {
          "internalType": "uint256",
          "name": "",
          "type": "uint256"
        }
      ],
      "name": "candidates",
      "outputs": [
        {
          "internalType": "uint256",
          "name": "id",
          "type": "uint256"
        },
        {
          "internalType": "string",
          "name": "name",
          "type": "string"
        },
        {
          "internalType": "enum AdminRegistry.SetType",
          "name": "set",
          "type": "uint8"
        },
        {
          "internalType": "string",
          "name": "district",
          "type": "string"
        },
        {
          "internalType": "uint256",
          "name": "voteCount",
          "type": "uint256"
        }
      ],
      "stateMutability": "view",
      "type": "function"
    },
    {
      "inputs": [
        {
          "internalType": "string",
          "name": "nic",
          "type": "string"
        },
        {
          "internalType": "uint256",
          "name": "candidateId",
          "type": "uint256"
        }
      ],
      "name": "castVote",
      "outputs": [],
      "stateMutability": "nonpayable",
      "type": "function"
    },
    {
      "inputs": [],
      "name": "electionStarted",
      "outputs": [
        {
          "internalType": "bool",
          "name": "",
          "type": "bool"
        }
      ],
      "stateMutability": "view",
      "type": "function"
    },
    {
      "inputs": [
        {
          "internalType": "uint256",
          "name": "id",
          "type": "uint256"
        }
      ],
      "name": "getCandidate",
      "outputs": [
        {
          "internalType": "string",
          "name": "name",
          "type": "string"
        },
        {
          "internalType": "enum AdminRegistry.SetType",
          "name": "set",
          "type": "uint8"
        },
        {
          "internalType": "string",
          "name": "district",
          "type": "string"
        },
        {
          "internalType": "uint256",
          "name": "voteCount",
          "type": "uint256"
        }
      ],
      "stateMutability": "view",
      "type": "function"
    },
    {
      "inputs": [],
      "name": "getCandidateCount",
      "outputs": [
        {
          "internalType": "uint256",
          "name": "",
          "type": "uint256"
        }
      ],
      "stateMutability": "view",
      "type": "function"
    },
    {
      "inputs": [
        {
          "internalType": "string",
          "name": "nic",
          "type": "string"
        }
      ],
      "name": "hasNICVoted",
      "outputs": [
        {
          "internalType": "bool",
          "name": "",
          "type": "bool"
        }
      ],
      "stateMutability": "view",
      "type": "function"
    },
    {
      "inputs": [
        {
          "internalType": "string",
          "name": "_name",
          "type": "string"
        },
        {
          "internalType": "enum AdminRegistry.SetType",
          "name": "_set",
          "type": "uint8"
        },
        {
          "internalType": "string",
          "name": "_district",
          "type": "string"
        }
      ],
      "name": "registerCandidate",
      "outputs": [],
      "stateMutability": "nonpayable",
      "type": "function"
    },
    {
      "inputs": [
        {
          "internalType": "address",
          "name": "_admin",
          "type": "address"
        }
      ],
      "name": "removeSubAdmin",
      "outputs": [],
      "stateMutability": "nonpayable",
      "type": "function"
    },
    {
      "inputs": [],
      "name": "startElection",
      "outputs": [],
      "stateMutability": "nonpayable",
      "type": "function"
    },
    {
      "inputs": [],
      "name": "stopElection",
      "outputs": [],
      "stateMutability": "nonpayable",
      "type": "function"
    },
    {
      "inputs": [
        {
          "internalType": "address",
          "name": "",
          "type": "address"
        }
      ],
      "name": "subAdmins",
      "outputs": [
        {
          "internalType": "bool",
          "name": "",
          "type": "bool"
        }
      ],
      "stateMutability": "view",
      "type": "function"
    },
    {
      "inputs": [],
      "name": "superAdmin",
      "outputs": [
        {
          "internalType": "address",
          "name": "",
          "type": "address"
        }
      ],
      "stateMutability": "view",
      "type": "function"
    },
    {
      "inputs": [
        {
          "internalType": "string",
          "name": "",
          "type": "string"
        }
      ],
      "name": "votersByNIC",
      "outputs": [
        {
          "internalType": "string",
          "name": "nic",
          "type": "string"
        },
        {
          "internalType": "bool",
          "name": "hasVoted",
          "type": "bool"
        }
      ],
      "stateMutability": "view",
      "type": "function"
    }
  ],
  "bytecode": "0x608060405234801561001057600080fd5b50604051611bb2380380611bb283398181016040528101906100329190610119565b806040516020016100429061019d565b6040516020818303038152906040528051906020012014610098576040517f08c379a000000000000000000000000000000000000000000000000000000000815260040161008f9061020f565b60405180910390fd5b336000806101000a81548173ffffffffffffffffffffffffffffffffffffffff021916908373ffffffffffffffffffffffffffffffffffffffff1602179055505061022f565b600080fd5b6000819050919050565b6100f6816100e3565b811461010157600080fd5b50565b600081519050610113816100ed565b92915050565b60006020828403121561012f5761012e6100de565b5b600061013d84828501610104565b91505092915050565b600081905092915050565b7f3335323032313233343536373800000000000000000000000000000000000000600082015250565b6000610187600d83610146565b915061019282610151565b600d82019050919050565b60006101a88261017a565b9150819050919050565b600082825260208201905092915050565b7f496e76616c696420434e49430000000000000000000000000000000000000000600082015250565b60006101f9600c836101b2565b9150610204826101c3565b602082019050919050565b60006020820190508181036000830152610228816101ec565b9050919050565b6119748061023e6000396000f3fe608060405234801561001057600080fd5b50600436106100ea5760003560e01c80636132fa631161008c578063b9c4eb4311610066578063b9c4eb4314610253578063d5346da11461026f578063e3b9e2fa1461028d578063f4651d57146102a9576100ea565b80636132fa63146101e857806362d73eb8146102185780637db181db14610222576100ea565b806330a56347116100c857806330a56347146101475780633477ee2e1461016557806335b8e820146101995780633e4d2359146101cc576100ea565b806317088645146100ef57806329575f6a1461011f5780632df9feaa1461013d575b600080fd5b61010960048036038101906101049190610f10565b6102c5565b6040516101169190610f74565b60405180910390f35b6101276102fd565b6040516101349190610fd0565b60405180910390f35b610145610321565b005b61014f6103cb565b60405161015c9190611004565b60405180910390f35b61017f600480360381019061017a919061104b565b6103d8565b60405161019095949392919061116e565b60405180910390f35b6101b360048036038101906101ae919061104b565b61053b565b6040516101c394939291906111cf565b60405180910390f35b6101e660048036038101906101e19190611247565b61070a565b005b61020260048036038101906101fd91906112fe565b610879565b60405161020f9190610f74565b60405180910390f35b610220610899565b005b61023c60048036038101906102379190610f10565b610944565b60405161024a92919061132b565b60405180910390f35b61026d600480360381019061026891906112fe565b610a13565b005b610277610afc565b6040516102849190610f74565b60405180910390f35b6102a760048036038101906102a2919061135b565b610b0f565b005b6102c360048036038101906102be91906112fe565b610ccd565b005b60006003826040516102d791906113f3565b908152602001604051809103902060010160009054906101000a900460ff169050919050565b60008054906101000a900473ffffffffffffffffffffffffffffffffffffffff1681565b60008054906101000a900473ffffffffffffffffffffffffffffffffffffffff1673ffffffffffffffffffffffffffffffffffffffff163373ffffffffffffffffffffffffffffffffffffffff16146103af576040517f08c379a00000000000000000000000000000000000000000000000000000000081526004016103a690611456565b60405180910390fd5b60008060146101000a81548160ff021916908315150217905550565b6000600180549050905090565b600181815481106103e857600080fd5b9060005260206000209060050201600091509050806000015490806001018054610411906114a5565b80601f016020809104026020016040519081016040528092919081815260200182805461043d906114a5565b801561048a5780601f1061045f5761010080835404028352916020019161048a565b820191906000526020600020905b81548152906001019060200180831161046d57829003601f168201915b5050505050908060020160009054906101000a900460ff16908060030180546104b2906114a5565b80601f01602080910402602001604051908101604052809291908181526020018280546104de906114a5565b801561052b5780601f106105005761010080835404028352916020019161052b565b820191906000526020600020905b81548152906001019060200180831161050e57829003601f168201915b5050505050908060040154905085565b60606000606060008060018681548110610558576105576114d6565b5b90600052602060002090600502016040518060a00160405290816000820154815260200160018201805461058b906114a5565b80601f01602080910402602001604051908101604052809291908181526020018280546105b7906114a5565b80156106045780601f106105d957610100808354040283529160200191610604565b820191906000526020600020905b8154815290600101906020018083116105e757829003601f168201915b505050505081526020016002820160009054906101000a900460ff166001811115610632576106316110f7565b5b6001811115610644576106436110f7565b5b8152602001600382018054610658906114a5565b80601f0160208091040260200160405190810160405280929190818152602001828054610684906114a5565b80156106d15780601f106106a6576101008083540402835291602001916106d1565b820191906000526020600020905b8154815290600101906020018083116106b457829003601f168201915b50505050508152602001600482015481525050905080602001518160400151826060015183608001519450945094509450509193509193565b60008054906101000a900473ffffffffffffffffffffffffffffffffffffffff1673ffffffffffffffffffffffffffffffffffffffff163373ffffffffffffffffffffffffffffffffffffffff1614610798576040517f08c379a000000000000000000000000000000000000000000000000000000000815260040161078f90611456565b60405180910390fd5b60016040518060a0016040528060018054905081526020018581526020018460018111156107c9576107c86110f7565b5b81526020018381526020016000815250908060018154018082558091505060019003906000526020600020906005020160009091909190915060008201518160000155602082015181600101908161082191906116b1565b5060408201518160020160006101000a81548160ff0219169083600181111561084d5761084c6110f7565b5b0217905550606082015181600301908161086791906116b1565b50608082015181600401555050505050565b60026020528060005260406000206000915054906101000a900460ff1681565b60008054906101000a900473ffffffffffffffffffffffffffffffffffffffff1673ffffffffffffffffffffffffffffffffffffffff163373ffffffffffffffffffffffffffffffffffffffff1614610927576040517f08c379a000000000000000000000000000000000000000000000000000000000815260040161091e90611456565b60405180910390fd5b6001600060146101000a81548160ff021916908315150217905550565b60038180516020810182018051848252602083016020850120818352809550505050505060009150905080600001805461097d906114a5565b80601f01602080910402602001604051908101604052809291908181526020018280546109a9906114a5565b80156109f65780601f106109cb576101008083540402835291602001916109f6565b820191906000526020600020905b8154815290600101906020018083116109d957829003601f168201915b5050505050908060010160009054906101000a900460ff16905082565b60008054906101000a900473ffffffffffffffffffffffffffffffffffffffff1673ffffffffffffffffffffffffffffffffffffffff163373ffffffffffffffffffffffffffffffffffffffff1614610aa1576040517f08c379a0000000000000000000000000000000000000000000000000000000008152600401610a9890611456565b60405180910390fd5b6001600260008373ffffffffffffffffffffffffffffffffffffffff1673ffffffffffffffffffffffffffffffffffffffff16815260200190815260200160002060006101000a81548160ff02191690831515021790555050565b600060149054906101000a900460ff1681565b600260003373ffffffffffffffffffffffffffffffffffffffff1673ffffffffffffffffffffffffffffffffffffffff16815260200190815260200160002060009054906101000a900460ff16610b9b576040517f08c379a0000000000000000000000000000000000000000000000000000000008152600401610b92906117cf565b60405180910390fd5b600060149054906101000a900460ff16610bea576040517f08c379a0000000000000000000000000000000000000000000000000000000008152600401610be19061183b565b60405180910390fd5b6000600383604051610bfc91906113f3565b908152602001604051809103902090508060010160009054906101000a900460ff1615610c5e576040517f08c379a0000000000000000000000000000000000000000000000000000000008152600401610c55906118a7565b60405180910390fd5b82816000019081610c6f91906116b1565b5060018160010160006101000a81548160ff02191690831515021790555060018281548110610ca157610ca06114d6565b5b90600052602060002090600502016004016000815480929190610cc3906118f6565b9190505550505050565b60008054906101000a900473ffffffffffffffffffffffffffffffffffffffff1673ffffffffffffffffffffffffffffffffffffffff163373ffffffffffffffffffffffffffffffffffffffff1614610d5b576040517f08c379a0000000000000000000000000000000000000000000000000000000008152600401610d5290611456565b60405180910390fd5b6000600260008373ffffffffffffffffffffffffffffffffffffffff1673ffffffffffffffffffffffffffffffffffffffff16815260200190815260200160002060006101000a81548160ff02191690831515021790555050565b6000604051905090565b600080fd5b600080fd5b600080fd5b600080fd5b6000601f19601f8301169050919050565b7f4e487b7100000000000000000000000000000000000000000000000000000000600052604160045260246000fd5b610e1d82610dd4565b810181811067ffffffffffffffff82111715610e3c57610e3b610de5565b5b80604052505050565b6000610e4f610db6565b9050610e5b8282610e14565b919050565b600067ffffffffffffffff821115610e7b57610e7a610de5565b5b610e8482610dd4565b9050602081019050919050565b82818337600083830152505050565b6000610eb3610eae84610e60565b610e45565b905082815260208101848484011115610ecf57610ece610dcf565b5b610eda848285610e91565b509392505050565b600082601f830112610ef757610ef6610dca565b5b8135610f07848260208601610ea0565b91505092915050565b600060208284031215610f2657610f25610dc0565b5b600082013567ffffffffffffffff811115610f4457610f43610dc5565b5b610f5084828501610ee2565b91505092915050565b60008115159050919050565b610f6e81610f59565b82525050565b6000602082019050610f896000830184610f65565b92915050565b600073ffffffffffffffffffffffffffffffffffffffff82169050919050565b6000610fba82610f8f565b9050919050565b610fca81610faf565b82525050565b6000602082019050610fe56000830184610fc1565b92915050565b6000819050919050565b610ffe81610feb565b82525050565b60006020820190506110196000830184610ff5565b92915050565b61102881610feb565b811461103357600080fd5b50565b6000813590506110458161101f565b92915050565b60006020828403121561106157611060610dc0565b5b600061106f84828501611036565b91505092915050565b600081519050919050565b600082825260208201905092915050565b60005b838110156110b2578082015181840152602081019050611097565b60008484015250505050565b60006110c982611078565b6110d38185611083565b93506110e3818560208601611094565b6110ec81610dd4565b840191505092915050565b7f4e487b7100000000000000000000000000000000000000000000000000000000600052602160045260246000fd5b60028110611137576111366110f7565b5b50565b600081905061114882611126565b919050565b60006111588261113a565b9050919050565b6111688161114d565b82525050565b600060a0820190506111836000830188610ff5565b818103602083015261119581876110be565b90506111a4604083018661115f565b81810360608301526111b681856110be565b90506111c56080830184610ff5565b9695505050505050565b600060808201905081810360008301526111e981876110be565b90506111f8602083018661115f565b818103604083015261120a81856110be565b90506112196060830184610ff5565b95945050505050565b6002811061122f57600080fd5b50565b60008135905061124181611222565b92915050565b6000806000606084860312156112605761125f610dc0565b5b600084013567ffffffffffffffff81111561127e5761127d610dc5565b5b61128a86828701610ee2565b935050602061129b86828701611232565b925050604084013567ffffffffffffffff8111156112bc576112bb610dc5565b5b6112c886828701610ee2565b9150509250925092565b6112db81610faf565b81146112e657600080fd5b50565b6000813590506112f8816112d2565b92915050565b60006020828403121561131457611313610dc0565b5b6000611322848285016112e9565b91505092915050565b6000604082019050818103600083015261134581856110be565b90506113546020830184610f65565b9392505050565b6000806040838503121561137257611371610dc0565b5b600083013567ffffffffffffffff8111156113905761138f610dc5565b5b61139c85828601610ee2565b92505060206113ad85828601611036565b9150509250929050565b600081905092915050565b60006113cd82611078565b6113d781856113b7565b93506113e7818560208601611094565b80840191505092915050565b60006113ff82846113c2565b915081905092915050565b7f4e6f742073757065722061646d696e0000000000000000000000000000000000600082015250565b6000611440600f83611083565b915061144b8261140a565b602082019050919050565b6000602082019050818103600083015261146f81611433565b9050919050565b7f4e487b7100000000000000000000000000000000000000000000000000000000600052602260045260246000fd5b600060028204905060018216806114bd57607f821691505b6020821081036114d0576114cf611476565b5b50919050565b7f4e487b7100000000000000000000000000000000000000000000000000000000600052603260045260246000fd5b60008190508160005260206000209050919050565b60006020601f8301049050919050565b600082821b905092915050565b6000600883026115677fffffffffffffffffffffffffffffffffffffffffffffffffffffffffffffffff8261152a565b611571868361152a565b95508019841693508086168417925050509392505050565b6000819050919050565b60006115ae6115a96115a484610feb565b611589565b610feb565b9050919050565b6000819050919050565b6115c883611593565b6115dc6115d4826115b5565b848454611537565b825550505050565b600090565b6115f16115e4565b6115fc8184846115bf565b505050565b5b81811015611620576116156000826115e9565b600181019050611602565b5050565b601f8211156116655761163681611505565b61163f8461151a565b8101602085101561164e578190505b61166261165a8561151a565b830182611601565b50505b505050565b600082821c905092915050565b60006116886000198460080261166a565b1980831691505092915050565b60006116a18383611677565b9150826002028217905092915050565b6116ba82611078565b67ffffffffffffffff8111156116d3576116d2610de5565b5b6116dd82546114a5565b6116e8828285611624565b600060209050601f83116001811461171b5760008415611709578287015190505b6117138582611695565b86555061177b565b601f19841661172986611505565b60005b828110156117515784890151825560018201915060208501945060208101905061172c565b8683101561176e578489015161176a601f891682611677565b8355505b6001600288020188555050505b505050505050565b7f4e6f74207375622d61646d696e00000000000000000000000000000000000000600082015250565b60006117b9600d83611083565b91506117c482611783565b602082019050919050565b600060208201905081810360008301526117e8816117ac565b9050919050565b7f456c656374696f6e206e6f742073746172746564000000000000000000000000600082015250565b6000611825601483611083565b9150611830826117ef565b602082019050919050565b6000602082019050818103600083015261185481611818565b9050919050565b7f4e494320616c726561647920766f746564000000000000000000000000000000600082015250565b6000611891601183611083565b915061189c8261185b565b602082019050919050565b600060208201905081810360008301526118c081611884565b9050919050565b7f4e487b7100000000000000000000000000000000000000000000000000000000600052601160045260246000fd5b600061190182610feb565b91507fffffffffffffffffffffffffffffffffffffffffffffffffffffffffffffffff8203611933576119326118c7565b5b60018201905091905056fea2646970667358221220ca63bf74dd6999d458bbf506cb5c52f40a3861d7b130de8550fa3c9a01a8c63364736f6c634300081c0033",
  "linkReferences": {},
  "deployedLinkReferences": {}
}